:020000040000FA
:040000000128FE2FA6
:100F2A007E01B801CE01400194121212121114105E
:100F3A00941414159415141698019A01A42F9A164C
:100F4A0074100E1EA92F7414741240018E1DAE2F38
:100F5A007416751040010E1DB32F751475124001D9
:100F6A008E1CB82F751640019A121816F4100E1E10
:100F7A00BF2FF414F41240018E1DC42FF416F5107D
:100F8A0040010E1DC92FF514F51240018E1CCE2FFB
:100F9A00F51640011812181574110E1ED52F741566
:100FAA00741340018E1DDA2F7417751140010E1D3E
:100FBA00DF2F7515751340018E1CE42F751740013C
:100FCA0018111A14F4110E1EEB2FF415F413400124
:100FDA008E1DF02FF417F51140010E1DF52FF51592
:100FEA00F51340018E1CFA2FF51740011A10A42F91
:060FFA0001284001952FC3
:00000001FF
